{
	"web3/level_0/02.Solidity 经典用例/For and While Loop.sol": {
		"Loop": {
			"abi": [
				{
					"inputs": [],
					"name": "loop1",
					"outputs": [],
					"stateMutability": "pure",
					"type": "function"
				}
			],
			"devdoc": {
				"kind": "dev",
				"methods": {},
				"version": 1
			},
			"evm": {
				"assembly": "    /* \"web3/level_0/02.Solidity \\xe7\\xbb\\x8f\\xe5\\x85\\xb8\\xe7\\x94\\xa8\\xe4\\xbe\\x8b/For and While Loop.sol\":61:549  contract Loop {... */\n  mstore(0x40, 0x80)\n  callvalue\n  dup1\n  iszero\n  tag_1\n  jumpi\n  0x00\n  dup1\n  revert\ntag_1:\n  pop\n  dataSize(sub_0)\n  dup1\n  dataOffset(sub_0)\n  0x00\n  codecopy\n  0x00\n  return\nstop\n\nsub_0: assembly {\n        /* \"web3/level_0/02.Solidity \\xe7\\xbb\\x8f\\xe5\\x85\\xb8\\xe7\\x94\\xa8\\xe4\\xbe\\x8b/For and While Loop.sol\":61:549  contract Loop {... */\n      mstore(0x40, 0x80)\n      callvalue\n      dup1\n      iszero\n      tag_1\n      jumpi\n      0x00\n      dup1\n      revert\n    tag_1:\n      pop\n      jumpi(tag_2, lt(calldatasize, 0x04))\n      shr(0xe0, calldataload(0x00))\n      dup1\n      0xf5fb1bf8\n      eq\n      tag_3\n      jumpi\n    tag_2:\n      0x00\n      dup1\n      revert\n        /* \"web3/level_0/02.Solidity \\xe7\\xbb\\x8f\\xe5\\x85\\xb8\\xe7\\x94\\xa8\\xe4\\xbe\\x8b/For and While Loop.sol\":82:546  function loop1() public pure {... */\n    tag_3:\n      tag_4\n      tag_5\n      jump\t// in\n    tag_4:\n      stop\n    tag_5:\n        /* \"web3/level_0/02.Solidity \\xe7\\xbb\\x8f\\xe5\\x85\\xb8\\xe7\\x94\\xa8\\xe4\\xbe\\x8b/For and While Loop.sol\":148:157  uint256 i */\n      0x00\n        /* \"web3/level_0/02.Solidity \\xe7\\xbb\\x8f\\xe5\\x85\\xb8\\xe7\\x94\\xa8\\xe4\\xbe\\x8b/For and While Loop.sol\":143:439  for (uint256 i = 0; i < 10; i++) {... */\n    tag_7:\n        /* \"web3/level_0/02.Solidity \\xe7\\xbb\\x8f\\xe5\\x85\\xb8\\xe7\\x94\\xa8\\xe4\\xbe\\x8b/For and While Loop.sol\":167:169  10 */\n      0x0a\n        /* \"web3/level_0/02.Solidity \\xe7\\xbb\\x8f\\xe5\\x85\\xb8\\xe7\\x94\\xa8\\xe4\\xbe\\x8b/For and While Loop.sol\":163:164  i */\n      dup2\n        /* \"web3/level_0/02.Solidity \\xe7\\xbb\\x8f\\xe5\\x85\\xb8\\xe7\\x94\\xa8\\xe4\\xbe\\x8b/For and While Loop.sol\":163:169  i < 10 */\n      lt\n        /* \"web3/level_0/02.Solidity \\xe7\\xbb\\x8f\\xe5\\x85\\xb8\\xe7\\x94\\xa8\\xe4\\xbe\\x8b/For and While Loop.sol\":143:439  for (uint256 i = 0; i < 10; i++) {... */\n      iszero\n      tag_8\n      jumpi\n        /* \"web3/level_0/02.Solidity \\xe7\\xbb\\x8f\\xe5\\x85\\xb8\\xe7\\x94\\xa8\\xe4\\xbe\\x8b/For and While Loop.sol\":200:201  3 */\n      0x03\n        /* \"web3/level_0/02.Solidity \\xe7\\xbb\\x8f\\xe5\\x85\\xb8\\xe7\\x94\\xa8\\xe4\\xbe\\x8b/For and While Loop.sol\":195:196  i */\n      dup2\n        /* \"web3/level_0/02.Solidity \\xe7\\xbb\\x8f\\xe5\\x85\\xb8\\xe7\\x94\\xa8\\xe4\\xbe\\x8b/For and While Loop.sol\":195:201  i == 3 */\n      sub\n        /* \"web3/level_0/02.Solidity \\xe7\\xbb\\x8f\\xe5\\x85\\xb8\\xe7\\x94\\xa8\\xe4\\xbe\\x8b/For and While Loop.sol\":191:303  if (i == 3) {... */\n      iszero\n        /* \"web3/level_0/02.Solidity \\xe7\\xbb\\x8f\\xe5\\x85\\xb8\\xe7\\x94\\xa8\\xe4\\xbe\\x8b/For and While Loop.sol\":279:287  continue */\n      tag_9\n        /* \"web3/level_0/02.Solidity \\xe7\\xbb\\x8f\\xe5\\x85\\xb8\\xe7\\x94\\xa8\\xe4\\xbe\\x8b/For and While Loop.sol\":191:303  if (i == 3) {... */\n      jumpi\n        /* \"web3/level_0/02.Solidity \\xe7\\xbb\\x8f\\xe5\\x85\\xb8\\xe7\\x94\\xa8\\xe4\\xbe\\x8b/For and While Loop.sol\":326:327  5 */\n      0x05\n        /* \"web3/level_0/02.Solidity \\xe7\\xbb\\x8f\\xe5\\x85\\xb8\\xe7\\x94\\xa8\\xe4\\xbe\\x8b/For and While Loop.sol\":321:322  i */\n      dup2\n        /* \"web3/level_0/02.Solidity \\xe7\\xbb\\x8f\\xe5\\x85\\xb8\\xe7\\x94\\xa8\\xe4\\xbe\\x8b/For and While Loop.sol\":321:327  i == 5 */\n      sub\n        /* \"web3/level_0/02.Solidity \\xe7\\xbb\\x8f\\xe5\\x85\\xb8\\xe7\\x94\\xa8\\xe4\\xbe\\x8b/For and While Loop.sol\":317:428  if (i == 5) {... */\n      iszero\n        /* \"web3/level_0/02.Solidity \\xe7\\xbb\\x8f\\xe5\\x85\\xb8\\xe7\\x94\\xa8\\xe4\\xbe\\x8b/For and While Loop.sol\":407:412  break */\n      tag_8\n        /* \"web3/level_0/02.Solidity \\xe7\\xbb\\x8f\\xe5\\x85\\xb8\\xe7\\x94\\xa8\\xe4\\xbe\\x8b/For and While Loop.sol\":317:428  if (i == 5) {... */\n      jumpi\n        /* \"web3/level_0/02.Solidity \\xe7\\xbb\\x8f\\xe5\\x85\\xb8\\xe7\\x94\\xa8\\xe4\\xbe\\x8b/For and While Loop.sol\":143:439  for (uint256 i = 0; i < 10; i++) {... */\n    tag_9:\n        /* \"web3/level_0/02.Solidity \\xe7\\xbb\\x8f\\xe5\\x85\\xb8\\xe7\\x94\\xa8\\xe4\\xbe\\x8b/For and While Loop.sol\":171:174  i++ */\n      dup1\n      dup1\n      0x01\n      add\n      swap2\n      pop\n      pop\n        /* \"web3/level_0/02.Solidity \\xe7\\xbb\\x8f\\xe5\\x85\\xb8\\xe7\\x94\\xa8\\xe4\\xbe\\x8b/For and While Loop.sol\":143:439  for (uint256 i = 0; i < 10; i++) {... */\n      jump(tag_7)\n    tag_8:\n      pop\n        /* \"web3/level_0/02.Solidity \\xe7\\xbb\\x8f\\xe5\\x85\\xb8\\xe7\\x94\\xa8\\xe4\\xbe\\x8b/For and While Loop.sol\":474:483  uint256 j */\n      0x00\n        /* \"web3/level_0/02.Solidity \\xe7\\xbb\\x8f\\xe5\\x85\\xb8\\xe7\\x94\\xa8\\xe4\\xbe\\x8b/For and While Loop.sol\":494:539  while (j < 10) {... */\n    tag_12:\n        /* \"web3/level_0/02.Solidity \\xe7\\xbb\\x8f\\xe5\\x85\\xb8\\xe7\\x94\\xa8\\xe4\\xbe\\x8b/For and While Loop.sol\":505:507  10 */\n      0x0a\n        /* \"web3/level_0/02.Solidity \\xe7\\xbb\\x8f\\xe5\\x85\\xb8\\xe7\\x94\\xa8\\xe4\\xbe\\x8b/For and While Loop.sol\":501:502  j */\n      dup2\n        /* \"web3/level_0/02.Solidity \\xe7\\xbb\\x8f\\xe5\\x85\\xb8\\xe7\\x94\\xa8\\xe4\\xbe\\x8b/For and While Loop.sol\":501:507  j < 10 */\n      lt\n        /* \"web3/level_0/02.Solidity \\xe7\\xbb\\x8f\\xe5\\x85\\xb8\\xe7\\x94\\xa8\\xe4\\xbe\\x8b/For and While Loop.sol\":494:539  while (j < 10) {... */\n      iszero\n      tag_13\n      jumpi\n        /* \"web3/level_0/02.Solidity \\xe7\\xbb\\x8f\\xe5\\x85\\xb8\\xe7\\x94\\xa8\\xe4\\xbe\\x8b/For and While Loop.sol\":524:527  j++ */\n      dup1\n      dup1\n      tag_14\n      swap1\n      tag_15\n      jump\t// in\n    tag_14:\n      swap2\n      pop\n      pop\n        /* \"web3/level_0/02.Solidity \\xe7\\xbb\\x8f\\xe5\\x85\\xb8\\xe7\\x94\\xa8\\xe4\\xbe\\x8b/For and While Loop.sol\":494:539  while (j < 10) {... */\n      jump(tag_12)\n    tag_13:\n        /* \"web3/level_0/02.Solidity \\xe7\\xbb\\x8f\\xe5\\x85\\xb8\\xe7\\x94\\xa8\\xe4\\xbe\\x8b/For and While Loop.sol\":111:546  {... */\n      pop\n        /* \"web3/level_0/02.Solidity \\xe7\\xbb\\x8f\\xe5\\x85\\xb8\\xe7\\x94\\xa8\\xe4\\xbe\\x8b/For and While Loop.sol\":82:546  function loop1() public pure {... */\n      jump\t// out\n        /* \"#utility.yul\":7:187   */\n    tag_16:\n        /* \"#utility.yul\":55:132   */\n      0x4e487b7100000000000000000000000000000000000000000000000000000000\n        /* \"#utility.yul\":52:53   */\n      0x00\n        /* \"#utility.yul\":45:133   */\n      mstore\n        /* \"#utility.yul\":152:156   */\n      0x11\n        /* \"#utility.yul\":149:150   */\n      0x04\n        /* \"#utility.yul\":142:157   */\n      mstore\n        /* \"#utility.yul\":176:180   */\n      0x24\n        /* \"#utility.yul\":173:174   */\n      0x00\n        /* \"#utility.yul\":166:181   */\n      revert\n        /* \"#utility.yul\":193:270   */\n    tag_17:\n        /* \"#utility.yul\":230:237   */\n      0x00\n        /* \"#utility.yul\":259:264   */\n      dup2\n        /* \"#utility.yul\":248:264   */\n      swap1\n      pop\n        /* \"#utility.yul\":193:270   */\n      swap2\n      swap1\n      pop\n      jump\t// out\n        /* \"#utility.yul\":276:509   */\n    tag_15:\n        /* \"#utility.yul\":315:318   */\n      0x00\n        /* \"#utility.yul\":338:362   */\n      tag_22\n        /* \"#utility.yul\":356:361   */\n      dup3\n        /* \"#utility.yul\":338:362   */\n      tag_17\n      jump\t// in\n    tag_22:\n        /* \"#utility.yul\":329:362   */\n      swap2\n      pop\n        /* \"#utility.yul\":384:450   */\n      0xffffffffffffffffffffffffffffffffffffffffffffffffffffffffffffffff\n        /* \"#utility.yul\":377:382   */\n      dup3\n        /* \"#utility.yul\":374:451   */\n      sub\n        /* \"#utility.yul\":371:474   */\n      tag_23\n      jumpi\n        /* \"#utility.yul\":454:472   */\n      tag_24\n      tag_16\n      jump\t// in\n    tag_24:\n        /* \"#utility.yul\":371:474   */\n    tag_23:\n        /* \"#utility.yul\":501:502   */\n      0x01\n        /* \"#utility.yul\":494:499   */\n      dup3\n        /* \"#utility.yul\":490:503   */\n      add\n        /* \"#utility.yul\":483:503   */\n      swap1\n      pop\n        /* \"#utility.yul\":276:509   */\n      swap2\n      swap1\n      pop\n      jump\t// out\n\n    auxdata: 0xa2646970667358221220ef582371ff0dbcf482c20f38b0db5b71b99d26e223b1b5edac3a1b8b6681dfc464736f6c634300081a0033\n}\n",
				"bytecode": {
					"linkReferences": {},
					"object": "6080604052348015600e575f80fd5b506101258061001c5f395ff3fe6080604052348015600e575f80fd5b50600436106026575f3560e01c8063f5fb1bf814602a575b5f80fd5b60306032565b005b5f5b600a8110156059576003810315604d5760058103156059575b80806001019150506034565b505f5b600a8110156074578080606d9060ad565b915050605c565b50565b7f4e487b71000000000000000000000000000000000000000000000000000000005f52601160045260245ffd5b5f819050919050565b5f60b58260a4565b91507fffffffffffffffffffffffffffffffffffffffffffffffffffffffffffffffff820360e45760e36077565b5b60018201905091905056fea2646970667358221220ef582371ff0dbcf482c20f38b0db5b71b99d26e223b1b5edac3a1b8b6681dfc464736f6c634300081a0033",
					"opcodes": "PUSH1 0x80 PUSH1 0x40 MSTORE CALLVALUE DUP1 ISZERO PUSH1 0xE JUMPI PUSH0 DUP1 REVERT JUMPDEST POP PUSH2 0x125 DUP1 PUSH2 0x1C PUSH0 CODECOPY PUSH0 RETURN INVALID PUSH1 0x80 PUSH1 0x40 MSTORE CALLVALUE DUP1 ISZERO PUSH1 0xE JUMPI PUSH0 DUP1 REVERT JUMPDEST POP PUSH1 0x4 CALLDATASIZE LT PUSH1 0x26 JUMPI PUSH0 CALLDATALOAD PUSH1 0xE0 SHR DUP1 PUSH4 0xF5FB1BF8 EQ PUSH1 0x2A JUMPI JUMPDEST PUSH0 DUP1 REVERT JUMPDEST PUSH1 0x30 PUSH1 0x32 JUMP JUMPDEST STOP JUMPDEST PUSH0 JUMPDEST PUSH1 0xA DUP2 LT ISZERO PUSH1 0x59 JUMPI PUSH1 0x3 DUP2 SUB ISZERO PUSH1 0x4D JUMPI PUSH1 0x5 DUP2 SUB ISZERO PUSH1 0x59 JUMPI JUMPDEST DUP1 DUP1 PUSH1 0x1 ADD SWAP2 POP POP PUSH1 0x34 JUMP JUMPDEST POP PUSH0 JUMPDEST PUSH1 0xA DUP2 LT ISZERO PUSH1 0x74 JUMPI DUP1 DUP1 PUSH1 0x6D SWAP1 PUSH1 0xAD JUMP JUMPDEST SWAP2 POP POP PUSH1 0x5C JUMP JUMPDEST POP JUMP JUMPDEST PUSH32 0x4E487B7100000000000000000000000000000000000000000000000000000000 PUSH0 MSTORE PUSH1 0x11 PUSH1 0x4 MSTORE PUSH1 0x24 PUSH0 REVERT JUMPDEST PUSH0 DUP2 SWAP1 POP SWAP2 SWAP1 POP JUMP JUMPDEST PUSH0 PUSH1 0xB5 DUP3 PUSH1 0xA4 JUMP JUMPDEST SWAP2 POP PUSH32 0xFFFFFFFFFFFFFFFFFFFFFFFFFFFFFFFFFFFFFFFFFFFFFFFFFFFFFFFFFFFFFFFF DUP3 SUB PUSH1 0xE4 JUMPI PUSH1 0xE3 PUSH1 0x77 JUMP JUMPDEST JUMPDEST PUSH1 0x1 DUP3 ADD SWAP1 POP SWAP2 SWAP1 POP JUMP INVALID LOG2 PUSH5 0x6970667358 0x22 SLT KECCAK256 0xEF PC 0x23 PUSH18 0xFF0DBCF482C20F38B0DB5B71B99D26E223B1 0xB5 0xED 0xAC GASPRICE SHL DUP12 PUSH7 0x81DFC464736F6C PUSH4 0x4300081A STOP CALLER "
				},
				"gasEstimates": {
					"creation": {
						"codeDepositCost": "58600",
						"executionCost": "109",
						"totalCost": "58709"
					},
					"external": {
						"loop1()": "infinite"
					}
				},
				"methodIdentifiers": {
					"loop1()": "f5fb1bf8"
				}
			},
			"storageLayout": {
				"storage": [],
				"types": null
			},
			"userdoc": {
				"kind": "user",
				"methods": {},
				"version": 1
			}
		}
	}
}